S0110000636C6F636B5F6176722E737265635F
S113000083C09DC09CC0D8C29AC099C098C097C0F4
S113001096C095C094C042C292C091C090C08FC097
S11300208EC09CC18CC029C22CC22BC22AC229C238
S113003028C227C226C2ACC124C223C222C221C202
S113004020C21FC21EC2A4C11CC21BC21AC219C232
S113005018C217C216C2A2C114C213C212C211C25C
S113006010C20FC20EC2FDC10CC20BC20AC209C229
S113007008C207C206C294C104C203C202C201C2BA
S113008000C2FFC1FEC1EDC1FCC1FBC1FAC1F9C18F
S1130090F8C1F7C1F6C1EAC1F4C1F3C1F2C1F1C1BB
S11300A0F0C1EFC1EEC1A1C1ECC1EBC1EAC1E9C12C
S11300B0E8C1E7C1E6C1D5C1E4C1E3C1E2C1E1C120
S11300C0E0C1DFC1DEC1A5C1DCC1DBC1DAC1D9C178
S11300D0D8C1D7C1D6C1B8C151C252C254C256C286
S11300E058C25AC25CC25EC260C262C26400C80026
S11300F032001900302A8C23302AB01D6419FC21E7
S1130100B01DB01D6419881311241FBECFE5D4E0BF
S1130110DEBFCDBF11E0A0E6B0E0EEE6F4E102C040
S113012005900D92A431B107D9F721E0A4E1B1E023
S113013001C01D92AC35B207E1F7D6D296C960CFA3
S11301409DEC899F912D1124969596959695392F1E
S1130150330F232F220F220F230F821B20E1929FA4
S1130160800D11240895982F92959F70990F292F2F
S1130170220F220F920F8F70890F08958F929F92F2
S1130180AF92BF92CF92DF92EF92FF921F93CF93E1
S1130190DF93CDB7DEB729970FB6F894DEBF0FBE55
S11301A0CDBF6C015B014A0180E086D067E088E640
S11301B0ABD0CE0101967C0110E0612FC701C1D004
S11301C01F5F9FEFE91AF90A1730B9F78981CBDF6E
S11301D0F40180838A81C7DFF50180838B81C3DFCB
S11301E0F601808329960FB6F894DEBF0FBECDBF0B
S11301F0DF91CF911F91FF90EF90DF90CF90BF9050
S1130200AF909F908F9008951F93CF93DF93C82F43
S1130210D62F142F80E050D0812F92DF4DD08D2F18
S11302208FDF4AD08C2F8CDF47D088E658D0DF91FF
S1130230CF911F9108958B31910530F081B18C7F5E
S113024081B98AE080B908959C0140E050E068EEED
S113025073E080E090E0E1D820513109C90196951E
S11302608795282F8F3F910599F090F021E030E099
S11302703F5F220F220F422F50E0BA01660F771F13
S113028096D8CB016F3F710509F090F7262F01C076
S113029030E031B920B908958AE090E0CCDF1092C3
S11302A02C0116BE86B7856086BF78940895109297
S11302B0150110921401089590911501943168F478
S11302C0E0911501F0E0E95EFE4F80838091150115
S11302D08F5F8093150181E0089580E008959091E7
S11302E02C019111FCCF92E090932C01880F809304
S11302F0160185EA86BF80912C018111FCCF1092F2
S1130300150180912B01089590912C019111FCCF3E
S11303106093140190911501992311F0E0DF0EC050
S113032093E090932C01880F81608093160185EAF5
S113033086BF80912C018111FCCFB9DF80912B0104
S11303400895643148F4E62FF0E0E95EFE4F208121
S1130350FC01208381E0089580E008951F920F92AC
S11303600FB60F9211242F933F938F939F93AF93C4
S1130370BF93EF93FF9381B1E82FE87F8E2F90E036
S11303808935910508F07DC0FC01ED5EFF4F0994AD
S11303908091160183B985E886BF73C010922B0142
S11303A090912B0180911501981770F4E0912B0125
S11303B081E08E0F80932B01F0E0E95EFE4F808197
S11303C083B985E886BF5DC080911401811105C0A1
S11303D085E986BF10922C0154C08091160181607A
S11303E08093160185EA86BF4CC010922B01809140
S11303F01401882319F0813031F008C085E986BFE3
S113040010922C013EC085E886BF3BC085EC86BFB8
S113041038C0E0912B0181E08E0F80932B01F0E036
S113042083B1E95EFE4F808320912B0180911401FA
S113043030E090E00197281739071CF485EC86BF5B
S113044020C085E886BF1DC0E0912B0181E08E0F9E
S113045080932B01F0E083B1E95EFE4F808310921C
S1130460140185E986BF10922C010BC086B78F70EA
S1130470806A86BF10922C0104C085E986BF109261
S11304802C01FF91EF91BF91AF919F918F913F917B
S11304902F910F900FBE0F901F9018951F920F92DF
S11304A00FB60F9211248F939F93EF93FF939CB1F8
S11304B0E0914701F0E0E75BFE4F908380914701B4
S11304C08F5F809347019B3321F0809147018031F6
S11304D028F01092470181E080934801FF91EF9149
S11304E09F918F910F900FBE0F901F90189585B517
S11304F08C6085BD89B7806889BF80E383BD08951A
S113050081B38C6F81BB12BA8FEF87BB18BA089581
S11305102091600032B32D5F81E090E002C0880F2B
S1130520991F2A95E2F780959095832382BB18BA88
S113053082B3837F82BB80916000843030F48091E9
S113054060008F5F8093600003C081E0809360004F
S11305502091600032B32D5F81E090E002C0880FEB
S1130560991F2A95E2F7832B82BB089590E08A3085
S1130570910500F5FC01E459FF4F0994939A0895FD
S113058081E088BB089582E088BB089584E088BB3D
S1130590089588E088BB089580E188BB089580E2CF
S11305A088BB089580E488BB089580E888BB0895DB
S11305B0929A0895939A08951F920F920FB60F92EC
S11305C011242F933F934F935F936F937F938F9354
S11305D09F93AF93BF93EF93FF939ADF8091600053
S11305E08230F9F018F4813039F056C0833071F15B
S11305F0843009F442C050C06091300170913101DF
S113060080913201909133012CE330E040E050E0DE
S1130610E2D62AE030E040E050E0DDD6862FA6DFC7
S11306203BC0609130017091310180913201909111
S113063033012CE330E040E050E0CDD62AE030E056
S113064040E050E0C8D6822F91DF26C0609130018F
S11306507091310180913201909133012CE330E0AB
S113066040E050E0B8D6CA01B9012AE030E040E0E9
S113067050E0B1D6862F7ADF0FC0609130017091BF
S11306803101809132019091330128E532E040E05C
S113069050E0A1D6822F6ADFFF91EF91BF91AF9115
S11306A09F918F917F916F915F914F913F912F9186
S11306B00F900FBE0F901F901895CF93DF93F8946F
S11306C0D4E026DFC0E08C2F51DF87EA91E6019762
S11306D0F1F700C00000CF5FCA30A9F7D15089F705
S11306E07894DF91CF91089547D681E690E051D672
S11306F0D3DD06DFFCDE8FE690E04BD669D197D3DD
S113070013D380912E0190912F0167D190932F01E3
S113071080932E014BE551E06AE571E089E591E0B3
S11307202DDD2091590180915A0190E03CE3239FF3
S1130730800D911D112420912E0130912F018217DB
S1130740930749F18BE790E024D640912E01509114
S11307502F019A01A9E8B8E87CD6969587959295D9
S113076082958F7089279F7089276CE3689F900119
S1130770699F300D1124FA01E21BF30B9A0169D62B
S113078096958795929582958F7089279F70892772
S113079040E06E2F39DD10924701109248017894A1
S11307A08BE890E0F6D5C9E4D1E01CE380914801E0
S11307B0882309F446C08881880F8056982F990FA2
S11307C0990F890F99819053890F809359019A81C8
S11307D0990F9056292F220F220F920F2B8120530D
S11307E0920F90935A019C81990F9056292F220FB2
S11307F0220F920F2D812053920F90935B01883129
S113080028F0109259018EE990E0C3D580915A01E5
S11308108D3320F480915B018D3338F010925A01AE
S113082010925B018AEA90E0B4D51092480140919D
S11308305B0160915A0180915901E6DC8CEB90E0F8
S1130840A8D54BE551E06AE571E089E591E096DCD5
S113085083ED90E30197F1F700C0000080915B0104
S113086090912D01891709F4A1CF90915A012091FB
S11308705901492F50E0129F400D511D1124052E9E
S1130880000C660B770B4093300150933101609359
S113089032017093330180932D019E3109F40DDFF1
S11308A080915901823009F081CF80915A018D32B3
S11308B009F07CCF80915B01811178CF80912E016A
S11308C090912F018AD090932F0180932E014BE5B4
S11308D051E06AE571E089E591E050DC80912E01F8
S11308E090912F01803A25E0920708F05FCF409164
S11308F0590120915A0130E0149F200D311D11241B
S11309008217930709F452CF88EC90E042D54091C6
S11309102E0150912F019A01A9E8B8E89AD596952D
S11309208795929582958F7089279F708927189F44
S11309309001199F300D1124FA01E21BF30B9A0167
S113094088D596958795929582958F7089279F7003
S1130950892740E06E2F58DC29CFCF93DF93C62F31
S1130960D72FAADC8D2FA8DC8C2FA6DC81E1B7DC85
S1130970DF91CF910895A0DC62E081E1C5DC60E005
S113098085E491E0DEDC61E086E491E0DADCE5E434
S1130990F1E0808190E0982F88272181822B0895AF
S11309A0FF920F931F93CF93DF93F82EEB018A01ED
S11309B0E2DFC095D0958C239D23BC01602B712B65
S11309C08F2DCBDFDF91CF911F910F91FF90089571
S11309D06DE072ED82E0C1DF08953F924F925F9225
S11309E06F927F928F929F92AF92BF92CF92DF923B
S11309F0EF92FF920F931F93CF93DF93CDB7DEB7A0
S1130A0062970FB6F894DEBF0FBECDBF4C01E12C48
S1130A10F12CA12CB12CC12CD12C0F2EFCE36F2E68
S1130A20F02D77247394412C0F2EFEE15F2EF02DD0
S1130A308AE042DC6CE080E167DC07E311E0312C02
S1130A40632DC8017EDC33940F5F1F4F2CE03212FC
S1130A50F7CFFE01379620E030E0D901A95CBE4F04
S1130A608C91D901A85CBE4F4C9190E0982F8827B7
S1130A70840F911D819391932E5F3F4F2C3031054C
S1130A8061F78F81988594FF14C18D859E859C01A3
S1130A902227307F232F332788279870892F99277F
S1130AA0869586958695822B932B8A608A34910548
S1130AB009F001C14F85588929893A8989859A8520
S1130AC08C709927039708F041C0C9010024880F4E
S1130AD0991F001C880F991F001C892F902D8F735C
S1130AE099274170552742955295507F5427407F4E
S1130AF05427B901672F772762956F70462B572BC0
S1130B00649E6001659ED00C1124C80ED91E25FF79
S1130B100AC02F713327529EC001539E900D112499
S1130B20C81AD90A09C02F713327529EC001539E97
S1130B30900D1124C80ED91EC601815E9140803CDF
S1130B40934020F080EAC81A85E0D80AC814D90472
S1130B5009F4AAC08DED90E01CD496013695279532
S1130B603695279536952795AFE4BBE172D49695D3
S1130B7087959695879596958795805D06D4960179
S1130B80A9E8B8E866D48C011695079512950295E4
S1130B900F7001271F7001279801ADECBCEC59D4EC
S1130BA09695879596958795969587959C01220F9E
S1130BB0331F880F991F880F991F880F991F820F61
S1130BC0931F9801281B390BC901805DDED385EE84
S1130BD090E0DFD3609EC001619E900D1124460118
S1130BE0881A990A9401ADECBCEC33D48C011695A7
S1130BF00795169507951695079580E3800FC5D33D
S1130C00C801880F991F000F111F000F111F000F3B
S1130C10111F080F191FC401801B910B805DB5D3F0
S1130C208AE0B3D38DE0B1D3F701EE0FFF1F81E06B
S1130C3090E08C0F9D1FE80FF91FD182C0824B8179
S1130C405C8189819A819A01281B390B972D213067
S1130C50310509F0942D2D813E81241B350B872D00
S1130C602130310509F0842D892341F0872D92E04C
S1130C70E916F10409F0842D81112DC022E0E21659
S1130C80F104E9F41A8219821C821B821E821D82DD
S1130C903FEFA31AB30A8AE0A816B104F9F046019B
S1130CA0EE24E394F12CC4CE91E0E91AF108460154
S1130CB007C0C12CD12C21E0E21AF10801C0460181
S1130CC03FEFE31AF30A83E0E816F1040CF4B0CE24
S1130CD08FE097E205C08C2D9D2D02C085E09DE03C
S1130CE062960FB6F894DEBF0FBECDBFDF91CF91F1
S1130CF01F910F91FF90EF90DF90CF90BF90AF9036
S1130D009F908F907F906F905F904F903F90089549
S1130D1083E031DE282F2F70837090E0982F88278E
S1130D2026952695822B0895CF93DF93EC01F0DF6F
S1130D309C013327F901EE0FFF1FE250FF4F45914D
S1130D405491C417D50708F438C0F901EE0FFF1FFA
S1130D50EC50FF4F259134912C173D0780F1E92F7A
S1130D60FF27EE0FFF1FE451FF4FE491C41BD50B87
S1130D70CE01880F991FCC0FDD1FCC0FDD1FCC0FC8
S1130D80DD1FC80FD91FF0E0CE01BF0110D3892B9E
S1130D90C1F4CE01BF010BD3AB0100245695479596
S1130DA00794569547950794542F402D406160ED64
S1130DB07FEF83E0F5DD80E005C081E003C081E0E2
S1130DC001C081E0DF91CF9108950F931F93CF93DA
S1130DD0DF939EDFEC01FC01FF27EE0FFF1FE250C3
S1130DE0FF4F059114918AE0C6DDED2FFF27EE0F2A
S1130DF0FF1FE451FF4FE4919370E89F9001E99F36
S1130E00300D1124ADECBCEC24D3969587959695C2
S1130E10879596958795800F911FDF91CF911F91AC
S1130E200F9108958BE0A7DD892F869508952F9261
S1130E303F924F925F926F927F928F929F92AF9266
S1130E40BF92CF92DF92EF92FF920F931F93CF93B3
S1130E50DF9300D000D0CDB7DEB724E130E03A8391
S1130E6029830F2EF8EEEF2EF3E0FF2EF02D0F2E38
S1130E70F4E6BF2EF02D40E853E060E873E082E032
S1130E808FDD87EA91E60197F1F700C000008AE060
S1130E9072DD9C838B838BE06EDDEB81FC81E4E06F
S1130EA0FE9FE12DFF27112487FB002700F910E0A6
S1130EB0E023F123EF2B29F387EE90E06AD285DF5C
S1130EC0BC0180E090E020EA36E841E050E0A5D2A1
S1130ED02B013C019B01329522952F7023273F70F3
S1130EE02327A7E4B3E0B5D2969587959695879581
S1130EF096958795805D49D29201369527953695CA
S1130F00279536952795A5ECB0E2A3D292958295C4
S1130F108F7089279F7089279C838B839C01ADECFC
S1130F20BCEC97D2969587959695879596958795D7
S1130F309C01220F331F880F991F880F991F880F58
S1130F40991F820F931F2B813C81281B390BC901E8
S1130F50805D1BD2EB81FC81EE9DC001EF9D900D65
S1130F60FE9D900D11249201281B390B3C832B8389
S1130F703695279536952795ABE7B4E16AD26C018F
S1130F80D694C79480E38C0D00D2BC9CC001BD9C58
S1130F90900D1124EB81FC81E81BF90BFC83EB839E
S1130FA09F01ADECBCEC55D26C01D694C794D69499
S1130FB0C794D694C79480E38C0DE7D1C601880FFB
S1130FC0991FCC0CDD1CCC0CDD1CCC0CDD1CC80E1C
S1130FD0D91E8B819C818C199D09805DD6D18FEEA1
S1130FE090E0D7D11FDFA82E882E912C940136953E
S1130FF0279536952795ABE7B4E12BD2969587953F
S11310009C838B838B81805DC0D12B813C81B29E7C
S1131010C001B39E900D11246401C81AD90A960127
S1131020ADECBCEC16D296958795969587959695DA
S113103087959C838B838B81805DA7D18B819C81D9
S1131040880F991FEB81FC81EE0FFF1FEE0FFF1F2E
S1131050EE0FFF1FE80FF91FC6018E1B9F0B805D6B
S113106094D185EF90E095D18AE085DC99230CF04A
S113107002CF8FEF90E08DD18091360190E08815FA
S1131080990530F4A0923601E4E3F1E05182408204
S113109029813A81215031093A832983232B09F08C
S11310A0EACE87E091E075D1E4E3F1E0208131817B
S11310B0329522952F7023273F702327A7E4B3E0AE
S11310C0C8D1969587959695879596958795805DD1
S11310D05CD1E4E3F1E0408151819A01329522959B
S11310E02F7023273F702327A7E4B3E0B2D196954E
S11310F0879596958795969587950F2EF0E1EF2E17
S1131100F7E2FF2EF02D8E9D90018F9D300D9E9D58
S1131110300D1124CA01821B930B9C01369527952F
S11311203695279536952795A5ECB0E292D1929500
S113113082958F7089279F708927805D26D1E4E38B
S1131140F1E0408151819A01329522952F70232735
S11311503F702327A7E4B3E07CD1969587959695B5
S11311608795969587958E9D90018F9D300D9E9DB8
S1131170300D1124421B530B9A0136952795369551
S1131180279536952795A5ECB0E263D19295829583
S11311908F7089279F70892708EE13E0809F900144
S11311A0819F300D909F300D1124CA01821B930B37
S11311B09C013695279536952795ABE7B4E149D13F
S11311C096958795805DE1D0E4E3F1E0408151811B
S11311D09A01329522952F7023273F702327A7E485
S11311E0B3E037D19695879596958795969587958B
S11311F08E9D90018F9D300D9E9D300D1124421BBC
S1131200530B9A013695279536952795369527954C
S1131210A5ECB0E21ED1929582958F7089279F70BC
S11312208927809F9001819F300D909F300D11245C
S1131230421B530B9A013695279536952795ABE7B4
S1131240B4E107D1969587950F2EF4E6DF2EF02DA5
S1131250D89E9001D99E300D1124CA01821B930B94
S11312609C01ADECBCECF5D0969587959695879549
S113127096958795805D89D0E4E3F1E040815181C2
S11312809A01329522952F7023273F702327A7E4D4
S1131290B3E0DFD096958795969587959695879533
S11312A08E9D90018F9D300D9E9D300D1124421B0B
S11312B0530B9A013695279536952795369527959C
S11312C0A5ECB0E2C6D0929582958F7089279F7065
S11312D08927809F9001819F300D909F300D1124AC
S11312E0421B530B9A013695279536952795ABE704
S11312F0B4E1AFD096958795D89E9001D99E300DD4
S11313001124421B530B9A01ADECBCECA2D0969570
S1131310879596958795969587959C01220F331FFF
S1131320880F991F880F991F880F991F820F931F89
S11313309A01281B390BC901805D27D08EE091E00A
S113134028D0E4E3F1E0808191810F900F900F9019
S11313500F90DF91CF911F910F91FF90EF90DF904D
S1131360CF90BF90AF909F908F907F906F905F9041
S11313704F903F902F90089583E389B910BC88E97A
S11313808AB980B5866880BD08955D9BFECF8CB90F
S11313900895CF93DF93EC018881882329F0219667
S11313A0F4DF89918111FCCFDF91CF910895AA1BBD
S11313B0BB1B51E107C0AA1FBB1FA617B70710F03C
S11313C0A61BB70B881F991F5A95A9F7809590956E
S11313D0BC01CD010895A1E21A2EAA1BBB1BFD017D
S11313E00DC0AA1FBB1FEE1FFF1FA217B307E40700
S11313F0F50720F0A21BB30BE40BF50B661F771F58
S1131400881F991F1A9469F7609570958095909537
S11314109B01AC01BD01CF010895052E97FB16F485
S113142000940FD057FD05D0D6DF07FC02D046F458
S113143008C050954095309521953F4F4F4F5F4FD1
S1131440089590958095709561957F4F8F4F9F4F2C
S11314500895A29FB001B39FC001A39F01D0B29F82
S1111460700D811D1124911D0895F894FFCF85
S113146E015374617274696E672E2E2E0A0D00413B
S113147E4E59204D4F4445210A0D0043616C69625B
S113148E726174652074696D652100496E697420FA
S113149E636F6D706C6974652E2E2E0A0D00426199
S11314AE6420686F7572210A0D00426164206D69B3
S11314BE6E206F7220736563210A0D0054696D6589
S11314CE20736574210A0D0054696D6520697320BB
S11314DE6E6F7420636F7272656374210051546968
S11314EE6D653A20003A00666F756E642120002007
S11314FE4D487A2000204C4556454C200D0A00528A
S113150E445321200D0A000A5365743A2000204DDD
S107151E487A0A00F9
S9030000FC
