S0110000636C6F636B5F6176722E737265635F
S11300002AC044C043C098C241C040C057C33EC088
S11300103DC03CC03BC0FAC139C038C037C036C04F
S113002035C05EC133C06CC26EC26FC270C271C2D1
S113003072C273C274C275C277C26400C80032004F
S11300401900302A8C23302AB01D6419FC21B01DFC
S1130050B01D6419881311241FBECFE5D4E0DEBFA0
S1130060CDBF11E0A0E6B0E0E6E1F4E102C0059006
S11300700D92AA36B107D9F721E0AAE6B1E001C092
S11300801D92AE3BB207E1F772D3C3C9B9CF6AE0A0
S11300900ED820E1829F900D1124892F0895982F66
S11300A092959F708F702AE0929F800D112408957D
S11300B0C5D061E088E6EAD060E08AE691E003D149
S11300C080916A010895CF93C82F862FB7D08C2FC3
S11300D0B5D088E6CF91C5C0CF93DF9381E1E8DF47
S11300E0D82F82E1E5DFC82F61E18EEEECDF62E11B
S11300F08DEDE9DF81E1DCDF8E3E61F482E1D8DF62
S11301008D3D41F461E18D2FDEDF62E18C2FDF91C3
S1130110CF91D9CFDF91CF9108958F929F92AF92D3
S1130120BF92CF92DF92EF92FF921F93CF93DF9310
S1130130CDB7DEB729970FB6F894DEBF0FBECDBF9B
S11301406C015B014A0180E079D067E088E69ED0CB
S1130150CE0101967C0110E0612FC701B4D01F5F6E
S11301609FEFE91AF90A1730B9F7898198DFF4018A
S113017080838A8194DFF50180838B8190DFF6018F
S1130180808329960FB6F894DEBF0FBECDBFDF91F2
S1130190CF911F91FF90EF90DF90CF90BF90AF90E1
S11301A09F908F9008951F93CF93DF93C82FD62FDE
S11301B0142F80E043D0812F6ADF40D08D2F67DF7A
S11301C03DD08C2F64DF3AD088E6DF91CF911F9128
S11301D048C08B31910528F081B18C7F81B98AE0C8
S11301E01BC09C0140E050E068EE73E080E090E0CA
S11301F07ED7C9014097E1E040E06E2F70E0660FC2
S1130200771F61D7CB016F3F710529F020F04F5F55
S1130210EE0FEE0FF2CF41B980B908958AE090E075
S1130220D8DF1092840116BE86B7856086BF7894A5
S1130230089510926D0110926C01089590916D01D2
S1130240943168F4E0916D01F0E0E159FE4F808350
S113025080916D018F5F80936D0181E0089580E04E
S11302600895909184019111FCCF92E090938401C0
S1130270880F80936E0185EA86BF80918401811185
S1130280FCCF10926D0180918301089590918401B7
S11302909111FCCF60936C0190916D01992311F041
S11302A0E0DF0EC093E090938401880F8160809317
S11302B06E0185EA86BF809184018111FCCFB9DF8C
S11302C0809183010895643148F4E62FF0E0E15908
S11302D0FE4F2081FC01208381E0089580E0089591
S11302E01F920F920FB60F9211242F933F938F9367
S11302F09F93EF93FF9381B1887F883259F178F40B
S1130300803119F130F4882309F471C08830E9F0A0
S113031072C08831E9F0803209F469C06CC080345D
S1130320B1F150F4803309F462C0883309F063C03A
S113033086B78F70806A5CC0803591F1883509F486
S113034049C0883409F057C052C080916E0112C070
S1130350109283019091830180916D01981760F44C
S1130360E091830181E08E0F80938301F0E0E159F5
S1130370FE4F808183B92BC080916C018823B9F131
S113038080916E01816080936E0185EA21C0109294
S1130390830180916C01882351F18130C1F015C033
S11303A0E091830181E08E0F80938301F0E083B1BB
S11303B0E159FE4F80832091830180916C0130E0EC
S11303C090E001972817390714F485EC01C085E8FB
S11303D086BF11C0E091830181E08E0F8093830179
S11303E0F0E083B1E159FE4F808310926C0185E9FE
S11303F086BF10928401FF91EF919F918F913F915D
S11304002F910F900FBE0F901F9018951F920F926F
S11304100FB60F9211248F939F93EF93FF939CB188
S1130420E091A501F0E0E955FE4F90838091A5018C
S11304308F5F8093A5019B3321F08091A5018031CA
S113044028F01092A50181E08093A601FF91EF911D
S11304509F918F910F900FBE0F901F9018958091D0
S11304609001813069F48EB588608EBD89B7806152
S113047089BF80E38BBD84ED8ABD8EB582608EBD5D
S113048085B58C6085BD89B7806889BF80E283BDEE
S1130490089581B38C6F81BB12BA8FEF87BB18BAF2
S11304A0089522B3309166003D5F81E090E001C081
S11304B0880F3A95EAF78095822382BB18BA82B3F3
S11304C0837F82BB80916600843011F08F5F01C00E
S11304D081E08093660032B3209166002D5F81E055
S11304E090E001C0880F2A95EAF7832B82BB089518
S11304F090E08A309105D8F4FC01ED5EFF4F099439
S11305009398939A089581E00DC082E00BC084E033
S113051009C088E007C080E105C080E203C080E430
S113052001C080E888BB08959298929A089518BAF9
S113053082B3837F82BB08951F920F920FB60F92EE
S113054011242F933F934F935F936F937F938F93D4
S11305509F93AF93BF93EF93FF93A3DF80916600C4
S11305608230B1F050F4813061F580918A0190912C
S11305708B016CE370E0A7D51DC0833099F0843003
S113058001F580918A0190918B0168E572E016C0B3
S113059080918A0190918B016CE370E094D56AE0BC
S11305A070E00CC080918A0190918B016CE370E043
S11305B08AD5CB016AE070E086D502C084D5862F47
S11305C097DFFF91EF91BF91AF919F918F917F91B1
S11305D06F915F914F913F912F910F900FBE0F90AC
S11305E01F9018950F931F93CF9304E010E0C0E081
S11305F058DF8C2F7DDF87EA91E60197F1F700C081
S11306000000CF5FCA30A1F70150110981F7CF91E3
S11306101F910F91089587E690E03ED50ADE10926F
S1130620900188E61EDE882341F085E890E034D509
S11306308091900181608093900181E112DE882392
S113064041F089E990E028D58091900182608093FF
S113065090018FEA90E020D581EC90E01DD5809147
S11306609001825E15D580E091E016C560918A0103
S113067070918B0120E030E090938B0180938A018C
S113068040E050E04217530721F000004F5F5F4FF6
S1130690F9CF70938B0160938A01A90100004F5F29
S11306A05F4F4F3F5105D1F72F5F3F4F2F3F31052C
S11306B019F790938B0180938A0108951F920F92EA
S11306C00FB60F9211242F933F934F935F936F9321
S11306D07F938F939F93AF93BF93EF93FF938091F7
S11306E08E0190918F01019690938F0180938E01DA
S11306F080918E0190918F018835924039F58091D7
S11307008C0190918D01019690938D0180938C01C1
S113071010928F0110928E0180918C0190918D0125
S1130720803A954020F010928D0110928C018091B6
S11307308C0190918D019ADF80918A0190918B01B7
S11307406CE370E0C0D44E9709F44CDFFF91EF9155
S1130750BF91AF919F918F917F916F915F914F91D5
S11307603F912F910F900FBE0F901F90189580E529
S113077090E0FBD4EC0183D451DDC4D18ADE4BDF9D
S11307806EDEAADC8AEC90E087D41092A501109268
S1130790A60178940CE310E08091A601882309F463
S11307A04CC08091A701880F8056982F990F990FFC
S11307B0890F9091A8019053890F8093B70190916C
S11307C0A901990F9056292F220F220F920F2091E1
S11307D0AA012053920F9093B8019091AB01990F05
S11307E09056292F220F220F920F2091AC012053F3
S11307F0920F9093B901883128F01092B70185EED9
S113080090E04AD48091B8018D3320F48091B901ED
S11308108D3338F01092B8011092B90181EF90E055
S11308203BD41092A6014091B9016091B801809126
S1130830B701B9DC83E091E02FD48091900181303D
S113084009F4B2C020F0833009F4D8C01FC149EBC9
S113085051E068EB71E087EB91E05FDC83ED90E3BE
S11308600197F1F700C000009091B90180918501D2
S1130870981709F491CF2091B7018091B80190E0C5
S11308803CE3239F800D911D1124F0DE8FE091E065
S113089003D48091B7014AE0BE0190E087D5EC0112
S11308A0FBD385E191E0F8D38091B8014AE0BE0121
S11308B090E07CD5CE01F0D385E191E0EDD3809139
S11308C0B9014AE0BE0190E071D5CE01E5D380E0E4
S11308D091E0E2D38091B901809385019091B701B1
S11308E0923009F059CF9091B8019D3209F054CF5C
S11308F0811152CF809188019091890107D1909301
S113090089018093880149EB51E068EB71E087EB42
S113091091E003DC8FE091E0BFD38091B7014AE01E
S1130920BE0190E043D5EC01B7D385E191E0B4D3A7
S11309308091B8014AE0BE0190E038D5CE01ACD335
S113094085E191E0A9D38091B9014AE0BE0190E02C
S11309502DD5CE01A1D380E091E09ED320918801D2
S113096030918901203A55E0350708F015CF4091C0
S1130970B7018091B80190E05CE3459F800D911D23
S113098011242817390709F407CF87E191E084D3AC
S11309908091880190918901B80195D3962F40E008
S11309A0682F892F00DCF8CE80918801909189010D
S11309B0ADD0909389018093880185302DE0920712
S11309C041F460D2809391018091910190E0F0D143
S11309D0E3CE909387018093860120918C0130911E
S11309E08D018217930709F4D7CE90938D018093DC
S11309F08C0110928F0110928E01CECE49EB51E002
S1130A0068EB71E087EB91E088DB83ED90E301977D
S1130A10F1F700C000009091B90180918501981709
S1130A2009F4BACE2091B7018091B80190E03CE37B
S1130A30239F800D911D112419DE8FE091E02CD3AA
S1130A408091B7014AE0BE0190E0B0D4EC0124D318
S1130A5085E191E021D38091B8014AE0BE0190E0A4
S1130A60A5D4CE0119D385E191E016D38091B901C3
S1130A704AE0BE0190E09AD4CE010ED380E091E02A
S1130A800BD38091B9018093850186CE8CE291E0ED
S1130A9003D382CECF93DF93EB01D0DB8D2FCEDB5C
S1130AA08C2FCCDB81E1DF91CF91DBCBC7DB62E024
S1130AB081E1ECDB60E083EA91E005DC61E084EA5B
S1130AC091E001DCE3EAF1E0808190E0982F88274F
S1130AD02181822B0895FF920F931F93CF93DF936D
S1130AE0F82EEB018A01E2DFC095D0958C239D237B
S1130AF0BC01602B712B8F2DDF91CF911F910F9132
S1130B00FF90C8CF6DE072ED82E0C4CF2F923F9288
S1130B104F925F926F927F928F929F92AF92BF9209
S1130B20CF92DF92EF92FF920F931F93CF93DF93B5
S1130B30CDB7DEB762970FB6F894DEBF0FBECDBF58
S1130B406C01E12CF12CA12CB12C00E010E08CE321
S1130B50482E512C9AE0692E712C2EE1222E8AE027
S1130B606DDB6CE080E192DBB5E98B2EB1E09B2E6E
S1130B70312C632DC401A7DB33942FEF821A920A20
S1130B806CE03612F6CFFE01319620E030E04F01E2
S1130B90D901AB56BE4F8C91D901AA56BE4F4C9188
S1130BA090E0982F8827840F911D819391932E5F55
S1130BB03F4F2C30310561F789819A8194FFBDC084
S1130BC08F8198859C012227307F232F3327882704
S1130BD09870892F9927869586958695822B932BD5
S1130BE08A608A34910509F0AAC089859A852B8583
S1130BF03C854B815C814C70552743305105D0F5C1
S1130C00890146E0169507954A95E1F70F73112778
S1130C108170992754E0880F991F5A95E1F7A9012B
S1130C20452F552742954F70842B952B6CE3689F75
S1130C30A001699F500D1124040F151FC9018F7164
S1130C40992725FF08C0289E9001299E300D112464
S1130C50021B130B07C0289E9001299E300D1124FE
S1130C60020F131FC801815E9140803C934010F035
S1130C70005A15400C151D0509F45BC084E391E08E
S1130C800BD2C80168E572E01ED280E3860F00D261
S1130C90C801B20118D26C01CB01B30114D2805D3A
S1130CA0F7D185E191E0F8D1C601B3010CD2D82E79
S1130CB080E3860FEDD180E38D0DEAD18DE0E8D19C
S1130CC0C701880F991FF401E80FF91F15870487DE
S1130CD04F8558898D859E859A01281B390B91E093
S1130CE02130310509F090E029893A89241B350B1C
S1130CF081E02130310509F080E0892321F062E0B0
S1130D00E616F10461F182E0E816F104F9F41E86B6
S1130D101D86188A1F861A8A198A2FEFA21AB20A08
S1130D206AE0A616B104E9F0902F812FE12CF12C92
S1130D300FC081E0E81AF10809C000E010E021E0EA
S1130D40E21AF108902F812F860102C0902F812F83
S1130D506FEFE61AF60A6801092F182F00CFC801B1
S1130D6002C085E09DE062960FB6F894DEBF0FBE28
S1130D70CDBFDF91CF911F910F91FF90EF90DF9046
S1130D80CF90BF90AF909F908F907F906F905F9027
S1130D904F903F902F90089583E088DE282F2F7086
S1130DA0837090E0982F882726952695822B0895A6
S1130DB0CF93DF93EC01F0DF9C013327220F331F25
S1130DC0F901E45BFF4F45915491C417D50740F1F5
S1130DD0F901EE5BFF4F259134912C173D0700F18B
S1130DE0E92FFF27EE0FFF1FE65CFF4F6491C41B42
S1130DF0D50B2AE02C9FC0012D9F900D112470E08B
S1130E0062D1892B69F486E0660F771F8A95E1F732
S1130E10AB01406160ED7FEF83E05DDE80E001C007
S1130E2081E0DF91CF9108950F931F93CF93DF93C8
S1130E30B3DFEC01FC01FF27EE0FFF1FE45BFF4F64
S1130E40059114918AE032DEED2FFF27EE0FFF1F8C
S1130E50E65CFF4FE4919C013370E29FC001E39F85
S1130E60900D11246AE070E02ED1CB01800F911F08
S1130E70DF91CF911F910F9108958BE017DE892F99
S1130E80869508952F923F924F925F926F927F9230
S1130E908F929F92AF92BF92CF92DF92EF92FF9286
S1130EA00F931F93CF93DF931F92CDB7DEB728EE36
S1130EB0C22E23E0D22E0AE010E034E6E32EF12C19
S1130EC044E1642E712C40E853E060E873E082E072
S1130ED002DE80E0A12CB12C94E0B99EA12CBB24AD
S1130EE0112487FB222420F8312CA220B320AB2824
S1130EF061F487EA91E60197F1F700C000008AE007
S1130F00D5DD5C018BE0D2DDE7CF8CE391E0C4D08A
S1130F108BDF5C0160E177E2D6D080E3860FB8D046
S1130F20C501B601D0D04C01CB01B801CCD0805D55
S1130F30AFD0C401B701C7D04C0180E3860FA8D05D
S1130F40C401B801C0D0982E80E3860FA1D080E3FD
S1130F50890D9ED084E491E09FD08FDF8983482E51
S1130F60512CC201B701AFD04C0180E3860F90D061
S1130F70C401B801A8D0982E80E3860F89D080E3FD
S1130F80890D86D08AE491E087D08AE08FDD97FFCF
S1130F909ACF84E591E080D08091940190E084150B
S1130FA0950538F4998190939401B0929301A0929D
S1130FB0920181E0681A710809F085CF8CE591E00F
S1130FC06BD0809192019091930160E177E27BD0A4
S1130FD080E3860F5DD0809192019091930160E14E
S1130FE077E271D0B6016FD080E3860F51D0809143
S1130FF092019091930160E177E265D0B60163D0EC
S1131000B70161D080E3860F43D080919201909123
S1131010930160E177E257D0B60155D0B70153D0C0
S1131020B80151D080E3860F33D080919201909122
S1131030930160E177E247D0B60145D0B70143D0D0
S1131040B80141D0805D24D083E691E025D0809121
S11310509201909193010F90DF91CF911F910F9185
S1131060FF90EF90DF90CF90BF90AF909F908F90C4
S11310707F906F905F904F903F902F90089583E3FF
S113108089B910BC88E98AB980B5866880BD08959D
S11310905D9BFECF8CB90895CF93DF93EC018991CA
S11310A0882311F0F5DFFBCFDF91CF910895991BD1
S11310B079E004C0991F961708F0961B881F7A954B
S11310C0C9F780950895AA1BBB1B51E107C0AA1F4D
S11310D0BB1FA617B70710F0A61BB70B881F991FD5
S11310E05A95A9F780959095BC01CD010895052ED8
S11310F097FB16F400940FD057FD05D014D007FCCD
S113110002D046F408C050954095309521953F4F44
S11311104F4F5F4F089590958095709561957F4FDF
S11311208F4F9F4F0895A1E21A2EAA1BBB1BFD01EE
S11311300DC0AA1FBB1FEE1FFF1FA217B307E407B2
S1131140F50720F0A21BB30BE40BF50B661F771F0A
S1131150881F991F1A9469F76095709580959095EA
S11311609B01AC01BD01CF0108950F931F93CF9351
S1131170DF938230910510F482E090E0E091BC01AD
S1131180F091BD0120E030E0A0E0B0E0309719F12B
S1131190408151810281138148175907C8F084178F
S11311A0950769F4109731F012960C9312971396E1
S11311B01C9327C00093BC011093BD0122C02115CC
S11311C0310519F04217530718F49A01BD01EF01D4
S11311D0DF01F801DBCF21153105F9F0281B390BAC
S11311E02430310580F48A819B816115710521F0D9
S11311F0FB019383828304C09093BD018093BC015F
S1131200FE01329644C0FE01E20FF31F81939193D5
S113121022503109398328833AC02091BA01309190
S1131220BB01232B41F42091620030916300309381
S1131230BB012093BA012091600030916100211517
S1131240310541F42DB73EB74091640050916500DB
S1131250241B350BE091BA01F091BB01E217F307AF
S1131260A0F42E1B3F0B2817390778F0AC014E5F12
S11312705F4F2417350748F04E0F5F1F5093BB0193
S11312804093BA018193919302C0E0E0F0E0CF0172
S1131290DF91CF911F910F910895CF93DF93009722
S11312A009F481C0FC01329713821282A091BC011F
S11312B0B091BD01109781F420813181820F931F79
S11312C02091BA013091BB012817390751F5F093E9
S11312D0BB01E093BA0167C0ED0120E030E0CE1716
S11312E0DF0740F44A815B819E0141155105F1F00D
S11312F0EA01F5CFD383C28340815181840F951FC6
S1131300C817D90759F488819981840F951F0296CB
S1131310918380838A819B81938382832115310504
S113132029F4F093BD01E093BC013DC0E901FB83C6
S1131330EA8349915991C40FD51FEC17FD0761F455
S113134080819181840F951F0296E9019983888396
S1131350828193819B838A83E0E0F0E012968D91F1
S11313609C911397009719F0FD01DC01F7CF8D9143
S11313709C9111979D012E5F3F4F820F931F2091E7
S1131380BA013091BB012817390769F4309729F461
S11313901092BD011092BC0102C013821282B0935C
S11313A0BB01A093BA01DF91CF910895BB274A30C6
S11313B031F4992322F4BDE2909581959F4F01C0A9
S11313C0BB27FB015527AA27880F991FAA1FA4171B
S11313D010F0A41B83955051B9F7A05DAA3308F00F
S11313E0A95DA193009779F7B111B1931192CB0143
S11313F000C0DC01FC01672F71917723E1F732977C
S113140004C07C916D9370836291AE17BF07C8F3DB
S10914100895F894FFCFDB
S11314160000BE012000015374617274696E672076
S1131426636865636B20493243206D6F64756C6530
S113143673210A0D0044533332333120697320611A
S11314466273656E74210A0D005244413538303793
S11314564D20697320616273656E74210A0D004321
S11314666865636B20636F6D706C697465210A0D22
S1131476004D6F64652069732000496E6974696163
S11314866C697A6174696F6E20636F6D706C6574D4
S113149665210A0D0042616420686F7572210A0D88
S11314A600426164206D696E206F7220736563214A
S11314B60A0D0054696D6520736574210A0D005484
S11314C6696D6520003A0054696D65206973206E64
S11314D66F7420636F727265637421004675636B63
S11314E6210A0D005154696D653A2000666F756EC8
S11314F664212000204D487A2000204C4556454C56
S1131506200D0A0052445321200D0A000A53657423
S10D15163A2000204D487A0A000034
S9030000FC
