:1000000083C09DC09CC02FC49AC099C00AC597C028
:1000100096C095C094C076C292C091C090C08FC067
:100020008EC0D0C18CC05DC260C25FC25EC25DC204
:100030005CC25BC25AC2E0C158C257C256C255C266
:1000400054C253C252C2D8C150C24FC24EC24DC296
:100050004CC24BC24AC2D6C148C247C246C245C2C0
:1000600044C243C242C231C240C23FC23EC23DC28C
:100070003CC23BC23AC2C8C138C237C236C235C21E
:1000800034C233C232C221C230C22FC22EC22DC2EC
:100090002CC22BC22AC21EC228C227C226C225C217
:1000A00024C223C222C2D5C120C21FC21EC21DC289
:1000B0001CC21BC21AC209C218C217C216C215C27C
:1000C00014C213C212C2D9C110C20FC20EC20DC2D5
:1000D0000CC20BC20AC2ECC1A8C3AAC3ACC3AEC354
:1000E000B0C3B2C3B4C3B6C3B8C3BAC36400C80014
:1000F00032001900302A8C23302AB01D6419FC21EB
:10010000B01DB01D6419881311241FBECFE5D4E0C3
:10011000DEBFCDBF11E0A0E6B0E0E2E3F6E102C051
:1001200005900D92A830B107D9F721E0A8E0B1E021
:1001300001C01D92A235B207E1F71ED278CA60CF86
:100140009DEC899F912D1124969596959695392F22
:10015000330F232F220F220F230F821B20E1929FA8
:10016000800D11240895982F92959F70990F292F33
:10017000220F220F920F8F70890F0895D1D061E066
:1001800088E6F6D060E088E091E00FD18091080128
:100190000895CF93C82F862FC3D08C2FC1D088E667
:1001A000D2D0CF910895CF93DF9381E1E7DFD82FAD
:1001B00082E1E4DFC82F61E18EEEEBDF62E18DEDDD
:1001C000E8DF81E1DBDF8E3E51F482E1D7DF8D3D58
:1001D00031F461E18D2FDDDF62E18C2FDADFDF9119
:1001E000CF9108958F929F92AF92BF92CF92DF925C
:1001F000EF92FF921F93CF93DF93CDB7DEB729978E
:100200000FB6F894DEBF0FBECDBF6C015B014A0193
:1002100080E086D067E088E6ABD0CE0101967C0115
:1002200010E0612FC701C1D01F5F9FEFE91AF90AE3
:100230001730B9F7898197DFF40180838A8193DFD2
:10024000F50180838B818FDFF601808329960FB6BD
:10025000F894DEBF0FBECDBFDF91CF911F91FF900D
:10026000EF90DF90CF90BF90AF909F908F900895C8
:100270001F93CF93DF93C82FD62F142F80E050D039
:10028000812F5EDF4DD08D2F5BDF4AD08C2F58DF62
:1002900047D088E658D0DF91CF911F9108958B31D8
:1002A000910530F081B18C7F81B98AE080B90895E1
:1002B0009C0140E050E068EE73E080E090E06DD992
:1002C00020513109C90196958795282F8F3F9105B7
:1002D00099F090F021E030E03F5F220F220F422F93
:1002E00050E0BA01660F771F44D9CB016F3F71050B
:1002F00009F090F7262F01C030E031B920B90895F8
:100300008AE090E0CCDF1092220116BE86B78560AD
:1003100086BF7894089510920B0110920A010895F7
:1003200090910B01943168F4E0910B01F0E0E35FF0
:10033000FE4F808380910B018F5F80930B0181E0E2
:10034000089580E00895909122019111FCCF92E0F0
:1003500090932201880F80930C0185EA86BF8091DB
:1003600022018111FCCF10920B018091210108958F
:10037000909122019111FCCF60930A0190910B01A1
:10038000992311F0E0DF0EC093E090932201880FD3
:10039000816080930C0185EA86BF809122018111E2
:1003A000FCCFB9DF809121010895643148F4E62F34
:1003B000F0E0E35FFE4F2081FC01208381E008959F
:1003C00080E008951F920F920FB60F9211242F9381
:1003D0003F938F939F93AF93BF93EF93FF9381B11D
:1003E000E82FE87F8E2F90E08935910508F07DC0D9
:1003F000FC01ED5EFF4F099480910C0183B985E803
:1004000086BF73C0109221019091210180910B0150
:10041000981770F4E091210181E08E0F8093210103
:10042000F0E0E35FFE4F808183B985E886BF5DC061
:1004300080910A01811105C085E986BF10922201D1
:1004400054C080910C01816080930C0185EA86BFC5
:100450004CC01092210180910A01882319F081304B
:1004600031F008C085E986BF109222013EC085E8C0
:1004700086BF3BC085EC86BF38C0E091210181E09A
:100480008E0F80932101F0E083B1E35FFE4F808304
:100490002091210180910A0130E090E00197281716
:1004A00039071CF485EC86BF20C085E886BF1DC0D7
:1004B000E091210181E08E0F80932101F0E083B172
:1004C000E35FFE4F808310920A0185E986BF109298
:1004D00022010BC086B78F70806A86BF10922201FE
:1004E00004C085E986BF10922201FF91EF91BF9170
:1004F000AF919F918F913F912F910F900FBE0F90D1
:100500001F9018951F920F920FB60F9211248F9380
:100510009F93EF93FF939CB1E0913D01F0E0E15C8C
:10052000FE4F908380913D018F5F80933D019B330F
:1005300021F080913D01803128F010923D0181E051
:1005400080933E01FF91EF919F918F910F900FBE8D
:100550000F901F90189585B58C6085BD89B7806810
:1005600089BF80E383BD089581B38C6F81BB12BACC
:100570008FEF87BB18BA0895E1D781E690E0EBD7FB
:10058000BFDEF2DFE8DF0FDE07D333D5AFD48091D3
:1005900024019091250105D3909325018093240196
:1005A00041E551E060E571E08FE491E01BDE2091D0
:1005B0004F018091500190E03CE3239F800D911DFD
:1005C000112420912401309125018217930749F1CC
:1005D0008FE690E0C0D740912401509125019A0107
:1005E000A9E8B8E8F6D796958795929582958F7089
:1005F00089279F7089276CE3689F9001699F300D60
:100600001124FA01E21BF30B9A01E3D79695879523
:10061000929582958F7089279F70892740E06E2F71
:1006200027DE10923D0110923E0178948FE790E012
:1006300092D7CFE3D1E01CE380913E01882309F4F7
:1006400046C08881880F8056982F990F990F890F7F
:1006500099819053890F80934F019A81990F9056F9
:10066000292F220F220F920F2B812053920F90934C
:1006700050019C81990F9056292F220F220F920F23
:100680002D812053920F90935101883128F01092C0
:100690004F0182E990E05FD7809150018D3320F4C3
:1006A000809151018D3338F0109250011092510118
:1006B0008EE990E050D710923E0140915101609137
:1006C000500180914F01D4DD80EB90E044D741E5AB
:1006D00051E060E571E08FE491E084DD83ED90E32B
:1006E0000197F1F700C00000809151019091230122
:1006F000891709F4A1CF90914F0140915001242F07
:1007000030E0199F200D311D1124309327012093D3
:10071000260180932301923009F08ECF4D3209F0EB
:100720008BCF811189CF809124019091250139D2FD
:10073000909325018093240141E551E060E571E04B
:100740008FE491E04FDD8091240190912501803A62
:1007500025E0920708F070CF40914F0120915001A1
:1007600030E0149F200D311D11248217930709F4E6
:1007700063CF8CEB90E0EFD640912401509125019E
:100780009A01A9E8B8E825D796958795929582951C
:100790008F7089279F708927189F9001199F300DAE
:1007A0001124FA01E21BF30B9A0113D79695879552
:1007B000929582958F7089279F70892740E06E2FD0
:1007C00057DD3ACF22B3309160003D5F81E090E089
:1007D00002C0880F991F3A95E2F78095822382BB69
:1007E00018BA82B3837F82BB80916000843020F48A
:1007F0008F5F8093600003C081E08093600032B31C
:10080000209160002D5F81E090E002C0880F991F69
:100810002A95E2F7832B82BB089590E08A309105F8
:1008200008F5FC01E459FF4F09949398939A0895B1
:1008300081E088BB089582E088BB089584E088BB8E
:10084000089588E088BB089580E188BB089580E220
:1008500088BB089580E488BB089580E888BB08952C
:100860009298929A08951F920F920FB60F921124A8
:100870002F933F934F935F936F937F938F939F93A8
:10088000AF93BF93EF93FF939DDF80916000823021
:10089000E9F118F4813041F09CC0833009F45BC069
:1008A000843009F482C095C04091260150912701FF
:1008B0009A01A9E8B8E88DD6969587959295829584
:1008C0008F7089279F7089276CE3689F9001699FCB
:1008D000300D1124421B530B9A01ADECBCEC79D6C0
:1008E0009695879596958795969587959C01220F65
:1008F000331F880F991F880F991F880F991F820F28
:10090000931F242F281B822F88DF63C0409126016C
:10091000509127019A01A9E8B8E85BD6969587958A
:10092000929582958F7089279F7089276CE3689FC5
:100930009001699F300D1124CA01821B930B9C0109
:10094000ADECBCEC46D69695879596958795969591
:10095000879563DF3EC02091260130912701A9E8E9
:10096000B8E837D6AC0156954795529542954F70E9
:1009700045275F7045279A01ADECBCEC2AD69695C9
:10098000879596958795969587959C01220F331F9D
:10099000880F991F880F991F880F991F820F931F27
:1009A000242F281B822F39DF14C02091260130917B
:1009B0002701369527953695279536952795AFE4E7
:1009C000BBE107D6969587959695879596958795D9
:1009D00024DFFF91EF91BF91AF919F918F917F9114
:1009E0006F915F914F913F912F910F900FBE0F909C
:1009F0001F901895CF93DF93F894D4E0E3DEC0E026
:100A00008C2F0BDF87EA91E60197F1F700C0000019
:100A1000CF5FCA30A9F7D15089F77894DF91CF9191
:100A200008951F920F920FB60F9211242F933F93A8
:100A30004F935F936F937F938F939F93AF93BF93E6
:100A4000EF93FF9380912801909129010196909353
:100A500029018093280140912801509129019A0190
:100A6000369527953695279536952795AFE4BBE1C2
:100A7000B0D596958795969587959695879568E5CF
:100A800072E0869F9001879F300D969F300D112454
:100A900042175307A9F580912801909129012091CF
:100AA0002801309129013695279536952795369559
:100AB00027958FD596958795969587959695879541
:100AC00090932701809326014091260150912701A0
:100AD0009A01A9E8B8E87DD5969587959295829573
:100AE0008F7089279F7089276CE3689F9001699FA9
:100AF000300D1124421B530B4E31510509F47ADF9E
:100B0000FF91EF91BF91AF919F918F917F916F91E5
:100B10005F914F913F912F910F900FBE0F901F90BB
:100B20001895CF93DF93C62FD72FFADB8D2FF8DBE5
:100B30008C2FF6DB81E107DCDF91CF910895F0DBAC
:100B400062E081E115DC60E08BE391E02EDC61E0A6
:100B50008CE391E02ADCEBE3F1E0808190E0982FD8
:100B600088272181822B0895FF920F931F93CF93A3
:100B7000DF93F82EEB018A01E2DFC095D0958C233C
:100B80009D23BC01602B712B8F2DCBDFDF91CF918B
:100B90001F910F91FF9008956DE072ED82E0C1DF2B
:100BA00008953F924F925F926F927F928F929F92A1
:100BB000AF92BF92CF92DF92EF92FF920F931F936B
:100BC000CF93DF93CDB7DEB762970FB6F894DEBF51
:100BD0000FBECDBF4C01E12CF12CA12CB12CC12CAE
:100BE000D12C0F2EFCE36F2EF02D77247394412C23
:100BF0000F2EFEE15F2EF02D8AE092DB6CE080E1AB
:100C0000B7DB0DE211E0312C632DC801CEDB33944C
:100C10000F5F1F4F2CE03212F7CFFE01379620E016
:100C200030E0D901A35DBE4F8C91D901A25DBE4FCA
:100C30004C9190E0982F8827840F911D8193919378
:100C40002E5F3F4F2C30310561F78F81988594FFDF
:100C500012C18D859E859C012227307F232F33274B
:100C600088279870892F9927869586958695822B57
:100C7000932B8A608A34910509F0FFC04F8558890B
:100C800029893A8989859A858C709927039708F074
:100C900041C0C9010024880F991F001C880F991FAB
:100CA000001C892F902D8F739927417055274295ED
:100CB0005295507F5427407F5427B901672F7727DB
:100CC00062956F70462B572B649E6001659ED00C19
:100CD0001124C80ED91E25FF0AC02F713327529E3A
:100CE000C001539E900D1124C81AD90A09C02F7152
:100CF0003327529EC001539E900D1124C80ED91E59
:100D0000C601815E9140803C934020F080EAC81A81
:100D100085E0D80AC814D90409F4A8C081ED90E090
:100D20001AD49601369527953695279536952795A9
:100D3000AFE4BBE14ED496958795969587959695A9
:100D40008795805D04D49601A9E8B8E842D48C0167
:100D500016950795129502950F7001271F700127B0
:100D60009801ADECBCEC35D4969587959695879512
:100D7000969587959C01220F331F880F991F880F26
:100D8000991F880F991F820F931F9801281B390BF9
:100D9000C901805DDCD389ED90E0DDD3609EC001A8
:100DA000619E900D11244601881A990A9401ADECB8
:100DB000BCEC0FD48C0116950795169507951695E2
:100DC000079580E3800FC3D3C801880F991F000FD8
:100DD000111F000F111F000F111F080F191FC40151
:100DE000801B910B805DB3D38DE0B1D3F701EE0F83
:100DF000FF1F81E090E08C0F9D1FE80FF91FD1824B
:100E0000C0824B815C8189819A819A01281B390BB0
:100E1000972D2130310509F0942D2D813E81241B21
:100E2000350B872D2130310509F0842D892341F0C0
:100E3000872D92E0E916F10409F0842D81112DC06F
:100E400022E0E216F104E9F41A8219821C821B8264
:100E50001E821D823FEFA31AB30A8AE0A816B104CE
:100E6000F9F04601EE24E394F12CC6CE91E0E91AA4
:100E7000F108460107C0C12CD12C21E0E21AF1088B
:100E800001C046013FEFE31AF30A83E0E816F104DC
:100E90000CF4B2CE8FE097E205C08C2D9D2D02C0E0
:100EA00085E09DE062960FB6F894DEBF0FBECDBF21
:100EB000DF91CF911F910F91FF90EF90DF90CF9036
:100EC000BF90AF909F908F907F906F905F904F906A
:100ED0003F90089583E033DE282F2F70837090E0D9
:100EE000982F882726952695822B0895CF93DF93F8
:100EF000EC01F0DF9C013327F901EE0FFF1FE250F8
:100F0000FF4F45915491C417D50708F438C0F90133
:100F1000EE0FFF1FEC50FF4F259134912C173D072A
:100F200080F1E92FFF27EE0FFF1FE451FF4FE491FF
:100F3000C41BD50BCE01880F991FCC0FDD1FCC0F22
:100F4000DD1FCC0FDD1FC80FD91FF0E0CE01BF01A0
:100F500010D3892BC1F4CE01BF010BD3AB01002408
:100F6000569547950794569547950794542F402DCD
:100F7000406160ED7FEF83E0F7DD80E005C081E058
:100F800003C081E001C081E0DF91CF9108950F930C
:100F90001F93CF93DF939EDFEC01FC01FF27EE0F41
:100FA000FF1FE250FF4F059114918AE0C8DDED2F3D
:100FB000FF27EE0FFF1FE451FF4FE4919370E89F6E
:100FC0009001E99F300D1124ADECBCEC02D3969555
:100FD00087959695879596958795800F911FDF91B8
:100FE000CF911F910F9108958BE0A9DD892F8695F0
:100FF00008952F923F924F925F926F927F928F92BD
:101000009F92AF92BF92CF92DF92EF92FF920F9397
:101010001F93CF93DF9300D000D0CDB7DEB724E18C
:1010200030E03A8329830F2EF8EEEF2EF3E0FF2E07
:10103000F02D0F2EF4E6BF2EF02D40E853E060E8CF
:1010400073E082E091DD87EA91E60197F1F700C055
:1010500000008AE074DD9C838B838BE070DDEB8184
:10106000FC81E4E0FE9FE12DFF27112487FB002790
:1010700000F910E0E023F123EF2B29F38BED90E052
:101080006AD285DFBC0180E090E020EA36E841E0EA
:1010900050E083D22B013C019B01329522952F70A9
:1010A00023273F702327A7E4B3E093D29695879533
:1010B0009695879596958795805D49D2920136954C
:1010C00027953695279536952795A5ECB0E281D2E0
:1010D000929582958F7089279F7089279C838B8337
:1010E0009C01ADECBCEC75D296958795969587954D
:1010F000969587959C01220F331F880F991F880FA3
:10110000991F880F991F820F931F2B813C81281BE9
:10111000390BC901805D1BD2EB81FC81EE9DC001C2
:10112000EF9D900DFE9D900D11249201281B390B0F
:101130003C832B833695279536952795ABE7B4E10D
:1011400048D26C01D694C79480E38C0D00D2BC9C2D
:10115000C001BD9C900D1124EB81FC81E81BF90BB3
:10116000FC83EB839F01ADECBCEC33D26C01D694D5
:10117000C794D694C794D694C79480E38C0DE7D1D6
:10118000C601880F991FCC0CDD1CCC0CDD1CCC0CCF
:10119000DD1CC80ED91E8B819C818C199D09805D38
:1011A000D6D183EE90E0D7D11FDFA82E882E912CC8
:1011B00094013695279536952795ABE7B4E109D28A
:1011C000969587959C838B838B81805DC0D12B8185
:1011D0003C81B29EC001B39E900D11246401C81AD7
:1011E000D90A9601ADECBCECF4D19695879596950D
:1011F0008795969587959C838B838B81805DA7D1FE
:101200008B819C81880F991FEB81FC81EE0FFF1F62
:10121000EE0FFF1FEE0FFF1FE80FF91FC6018E1B19
:101220009F0B805D94D189EE90E095D18AE087DCB8
:1012300099230CF002CF83EF90E08DD180912C01A7
:1012400090E08815990530F4A0922C01EAE2F1E0D3
:101250005182408229813A81215031093A83298380
:10126000232B09F0EACE8BEF90E075D1EAE2F1E0B2
:1012700020813181329522952F7023273F702327BB
:10128000A7E4B3E0A6D19695879596958795969510
:101290008795805D5CD1EAE2F1E0408151819A015D
:1012A000329522952F7023273F702327A7E4B3E0C0
:1012B00090D19695879596958795969587950F2EBB
:1012C000F0E1EF2EF7E2FF2EF02D8E9D90018F9D25
:1012D000300D9E9D300D1124CA01821B930B9C0181
:1012E000369527953695279536952795A5ECB0E246
:1012F00070D1929582958F7089279F708927805D24
:1013000026D1EAE2F1E0408151819A01329522959D
:101310002F7023273F702327A7E4B3E05AD1969577
:10132000879596958795969587958E9D90018F9D2B
:10133000300D9E9D300D1124421B530B9A013695A2
:1013400027953695279536952795A5ECB0E241D19E
:10135000929582958F7089279F70892708EE13E0F8
:10136000809F9001819F300D909F300D1124CA0104
:10137000821B930B9C013695279536952795ABE7F5
:10138000B4E127D196958795805DE1D0EAE2F1E05E
:10139000408151819A01329522952F7023273F7009
:1013A0002327A7E4B3E015D1969587959695879561
:1013B000969587958E9D90018F9D300D9E9D300D49
:1013C0001124421B530B9A01369527953695279584
:1013D00036952795A5ECB0E2FCD0929582958F705A
:1013E00089279F708927809F9001819F300D909F52
:1013F000300D1124421B530B9A01369527953695D3
:101400002795ABE7B4E1E5D0969587950F2EF4E6E6
:10141000DF2EF02DD89E9001D99E300D1124CA01E7
:10142000821B930B9C01ADECBCECD3D096958795B9
:101430009695879596958795805D89D0EAE2F1E04B
:10144000408151819A01329522952F7023273F7058
:101450002327A7E4B3E0BDD0969587959695879509
:10146000969587958E9D90018F9D300D9E9D300D98
:101470001124421B530B9A013695279536952795D3
:1014800036952795A5ECB0E2A4D0929582958F7001
:1014900089279F708927809F9001819F300D909FA1
:1014A000300D1124421B530B9A0136952795369522
:1014B0002795ABE7B4E18DD096958795D89E90019E
:1014C000D99E300D1124421B530B9A01ADECBCEC9C
:1014D00080D09695879596958795969587959C014A
:1014E000220F331F880F991F880F991F880F991F8C
:1014F000820F931F9A01281B390BC901805D27D0E9
:1015000082E091E028D0EAE2F1E0808191810F90C1
:101510000F900F900F90DF91CF911F910F91FF903F
:10152000EF90DF90CF90BF90AF909F908F907F9083
:101530006F905F904F903F902F90089583E389B90B
:1015400010BC88E98AB980B5866880BD08955D9B26
:10155000FECF8CB90895CF93DF93EC018881882367
:1015600029F02196F4DF89918111FCCFDF91CF9191
:101570000895AA1BBB1B51E107C0AA1FBB1FA617DA
:10158000B70710F0A61BB70B881F991F5A95A9F72C
:1015900080959095BC01CD010895052E97FB16F41A
:1015A00000940FD057FD05D020D007FC02D046F4A0
:1015B00008C050954095309521953F4F4F4F5F4F54
:1015C000089590958095709561957F4F8F4F9F4FAF
:1015D0000895A29FB001B39FC001A39F01D0B29F05
:1015E000700D811D1124911D0895A1E21A2EAA1BD0
:1015F000BB1BFD010DC0AA1FBB1FEE1FFF1FA217C3
:10160000B307E407F50720F0A21BB30BE40BF50BBF
:10161000661F771F881F991F1A9469F76095709548
:10162000809590959B01AC01BD01CF010895F89480
:02163000FFCFEA
:10163200015374617274696E672E2E2E0A0D004377
:10164200616C6962726174652074696D652100491B
:101652006E697420636F6D706C6974652E2E2E0A2C
:101662000D0042616420686F7572210A0D004261AB
:1016720064206D696E206F7220736563210A0D000C
:1016820054696D6520736574210A0D0054696D6596
:10169200206973206E6F7420636F727265637421A8
:1016A200005154696D653A20003A00666F756E64A8
:1016B200212000204D487A2000204C4556454C20E0
:1016C2000D0A0052445321200D0A000A5365743A50
:0816D2002000204D487A0A00B7
:00000001FF
