S0110000636C6F636B5F6176722E737265635F
S113000083C09DC09CC0BFC29AC099C059C297C04A
S113001096C095C094C093C092C091C090C08FC048
S11300208EC021C18CC0AEC1B1C1B0C1AFC1AEC11F
S1130030ADC1ACC1ABC131C1A9C1A8C1A7C1A6C1E1
S1130040A5C1A4C1A3C129C1A1C1A0C19FC19EC111
S11300509DC19CC19BC127C199C198C197C196C13B
S113006095C194C193C182C191C190C18FC18EC108
S11300708DC18CC18BC119C189C188C187C186C199
S113008085C184C183C172C181C180C17FC17EC168
S11300907DC17CC17BC16FC179C178C177C176C193
S11300A075C174C173C126C171C170C16FC16EC104
S11300B06DC16CC16BC15AC169C168C167C166C1F8
S11300C065C164C163C12AC161C160C15FC15EC150
S11300D05DC15CC15BC13DC1B7C1B9C1BBC1BDC1DB
S11300E0BFC1C1C1C3C1C5C1C7C1C9C16400C800C2
S11300F032001900302A8C23302AB01D6419FC21E7
S1130100B01DB01D6419881311241FBECFE5D4E0BF
S1130110DEBFCDBF10E0A0E6B0E0E0E9F2E102C04E
S113012005900D92A43BB107D9F720E0A4EBB0E011
S113013001C01D92AA3EB207E1F7ECD2A7C860CF76
S11301408B31910530F081B18C7F81B98AE080B91F
S113015008959C0140E050E068EE73E080E090E098
S11301604BD820513109C90196958795282F8F3F87
S1130170910599F090F021E030E03F5F220F220FCB
S1130180422F50E0BA01660F771F22D8CB016F3F90
S1130190710509F090F7262F01C030E031B920B97C
S11301A0089581E090E0CCDF1092CC0016BE86B7B3
S11301B0856086BF789408951092B5001092B400BB
S11301C008959091B500943168F4E091B500F0E0A1
S11301D0E954FF4F80838091B5008F5F8093B50011
S11301E081E0089580E008959091CC009111FCCFB6
S11301F092E09093CC00880F8093B60085EA86BF86
S11302008091CC008111FCCF1092B5008091CB007D
S113021008959091CC009111FCCF6093B40090911B
S1130220B500992311F0E0DF0EC093E09093CC0069
S1130230880F81608093B60085EA86BF8091CC00E8
S11302408111FCCFB9DF8091CB000895643148F46B
S1130250E62FF0E0E954FF4F2081FC01208381E088
S1130260089580E008951F920F920FB60F92112403
S11302702F933F938F939F93AF93BF93EF93FF93EA
S113028081B1E82FE87F8E2F90E08935910508F041
S11302907DC0FC01ED5EFF4F09948091B60083B9E7
S11302A085E886BF73C01092CB009091CB008091FB
S11302B0B500981770F4E091CB0081E08E0F809325
S11302C0CB00F0E0E954FF4F808183B985E886BF15
S11302D05DC08091B400811105C085E986BF10928C
S11302E0CC0054C08091B60081608093B60085EA4A
S11302F086BF4CC01092CB008091B400882319F0C3
S1130300813031F008C085E986BF1092CC003EC030
S113031085E886BF3BC085EC86BF38C0E091CB0042
S113032081E08E0F8093CB00F0E083B1E954FF4F5E
S113033080832091CB008091B40030E090E001975D
S1130340281739071CF485EC86BF20C085E886BFD2
S11303501DC0E091CB0081E08E0F8093CB00F0E0D4
S113036083B1E954FF4F80831092B40085E986BFBE
S11303701092CC000BC086B78F70806A86BF109233
S1130380CC0004C085E986BF1092CC00FF91EF91A8
S1130390BF91AF919F918F913F912F910F900FBE7D
S11303A00F901F9018958EB588608EBD89B78061B7
S11303B089BF80E38BBD84ED8ABD8EB582608EBD1E
S11303C085B58C6085BD89B7806889BF80E483BDAD
S11303D0089581B38C6F81BB12BA8FEF87BB18BAB3
S11303E0089522B3309160003D5F81E090E002C047
S11303F0880F991F3A95E2F78095822382BB18BA39
S113040082B3837F82BB80916000843021F08F5F50
S11304108093600003C081E08093600032B3209138
S113042060002D5F81E090E002C0880F991F2A953B
S1130430E2F7832B82BB089590E08A30910510F592
S1130440FC01E459FF4F09949398939A089581E02D
S113045088BB089582E088BB089584E088BB089532
S113046088E088BB089580E188BB089580E288BB5A
S1130470089580E488BB089580E888BB0895929825
S1130480929A089518BA82B3837F82BB08950F931A
S11304901F93CF9304E010E0A4DFC0E08C2FCCDFE7
S11304A087EA91E60197F1F700C00000CF5FCA30F8
S11304B0A9F70150110981F7CF911F910F91089568
S11304C01F920F920FB60F9211242F933F934F93C5
S11304D05F936F937F938F939F93AF93BF93EF93A8
S11304E0FF938091D5009091D60001969093D60009
S11304F08093D5008091D5009091D60088359240A4
S113050089F58091D3009091D40001969093D40002
S11305108093D3001092D6001092D5008091D3001E
S11305209091D4009093D2008093D1004091D10057
S11305305091D2009A01A9E8B8E87AD696958795A1
S1130540929582958F7089279F7089276CE3689FA5
S11305509001699F300D1124421B530B4E315105FC
S113056009F495DFFF91EF91BF91AF919F918F9126
S11305707F916F915F914F913F912F910F900FBE9B
S11305800F901F9018951F920F920FB60F9211247F
S11305902F933F934F935F936F937F938F939F9387
S11305A0AF93BF93EF93FF931CDF80916000823081
S11305B0E9F118F4813041F09CC0833009F45BC048
S11305C0843009F482C095C04091D1005091D2008A
S11305D09A01A9E8B8E82CD69695879592958295C4
S11305E08F7089279F7089276CE3689F9001699FAA
S11305F0300D1124421B530B9A01ADECBCEC18D600
S11306009695879596958795969587959C01220F43
S1130610331F880F991F880F991F880F991F820F06
S1130620931F242F281B822F07DF63C04091D10022
S11306305091D2009A01A9E8B8E8FAD59695879521
S1130640929582958F7089279F7089276CE3689FA4
S11306509001699F300D1124CA01821B930B9C01E8
S1130660ADECBCECE5D596958795969587959695D2
S11306708795E2DE3EC02091D1003091D200A9E8F6
S1130680B8E8D6D5AC0156954795529542954F702A
S113069045275F7045279A01ADECBCECC9D596950A
S11306A0879596958795969587959C01220F331F7C
S11306B0880F991F880F991F880F991F820F931F06
S11306C0242F281B822FB8DE14C02091D100309132
S11306D0D200369527953695279536952795AFE41C
S11306E0BBE1A6D59695879596958795969587951A
S11306F0A3DEFF91EF91BF91AF919F918F917F9175
S11307006F915F914F913F912F910F900FBE0F907A
S11307101F90189542D545DD67D05BDE44DE81E647
S113072090E048D5789494D210D28091CF009091E3
S1130730D0005FD09093D0008093CF0085302DE01F
S1130740920719F485D201D2F0CF9093CE00809312
S1130750CD002091D3003091D4008217930729F360
S11307609093D4008093D3001092D6001092D500B9
S1130770DCCFCF93DF93C62FD72F23DD8D2F21DD41
S11307808C2F1FDD81E130DDDF91CF91089519DDDC
S113079062E081E13EDD60E088EE90E057DD61E0FB
S11307A089EE90E053DDE8EEF0E0808190E0982F50
S11307B088272181822B0895FF920F931F93CF9353
S11307C0DF93F82EEB018A01E2DFC095D0958C23EC
S11307D09D23BC01602B712B8F2DCBDFDF91CF913B
S11307E01F910F91FF9008956DE072ED82E0C1DFDB
S11307F008952F923F924F925F926F927F928F92C1
S11308009F92AF92BF92CF92DF92EF92FF920F939B
S11308101F93CF93DF93CDB7DEB762970FB6F894EB
S1130820DEBF0FBECDBF4C01C12CD12C412C512CAD
S1130830E12CF12CA12CB12C0F2EFCE36F2EF02D0A
S1130840332433940F2EFEE17F2EF02D8AE0B9DCA1
S11308506CE080E1DEDC0AED10E0212C622DC801A1
S1130860F5DC23940F5F1F4F2CE02212F7CFFE011B
S1130870379620E030E0D901A652BF4F8C91D901C0
S1130880A552BF4F4C9190E0982F8827840F911D5B
S1130890819391932E5F3F4F2C30310561F78D8505
S11308A09E852F81388534FD02C0E12CF12C9C01FA
S11308B02227307F232F332788279870892F992761
S11308C0869586958695822B932B8A608A3491052A
S11308D009F001C14F85588989899A8929853A8502
S11308E02C7033272330310528F55C013FE3A32224
S11308F0BB244170552742955295507F5427407F21
S113090054279C01232F332722952F70422B532BDE
S1130910649E7001659EF00C11240024880F991FB9
S1130920001C880F991F001C892F902D8F73992705
S1130930E80EF91EA5FE0BC095012F713327729E98
S1130940C001739E900D1124E81AF90A0AC095019A
S11309502F713327729EC001739E900D1124E80EEF
S1130960F91E81EEE81681E0F80620F490EAE91A0F
S113097095E0F90AE814F90409F4A8C08CE790E0BA
S113098019D4970136952795369527953695279549
S1130990AFE4BBE14DD4969587959695879596954A
S11309A08795805D03D49701A9E8B8E841D48C0108
S11309B016950795129502950F7001271F70012750
S11309C09801ADECBCEC34D49695879596958795B3
S11309D0969587959C01220F331F880F991F880FC6
S11309E0991F880F991F820F931F9801281B390B99
S11309F0C901805DDBD384E890E0DCD3609EC00154
S1130A00619E900D11244701881A990A9401ADEC56
S1130A10BCEC0ED48C011695079516950795169582
S1130A20079580E3800FC2D3C801880F991F000F78
S1130A30111F000F111F000F111F080F191FC401F0
S1130A40801B910B805DB2D38DE0B0D3F601EE0F25
S1130A50FF1F81E090E08C0F9D1FE80FF91FF182CA
S1130A60E0824B815C8189819A819A01281B390B30
S1130A70932D2130310509F090E02D813E81241B16
S1130A80350B832D2130310509F080E0892341F0B5
S1130A90832D92E0C916D10409F080E081112BC0A6
S1130AA022E0C216D104D9F41A8219821C821B8254
S1130AB01E821D823FEF431A530A8FE048165104E9
S1130AC0E9F04701CC24C394D12CC0CE91E0C91ADB
S1130AD0D108470105C021E0C21AD10801C047016D
S1130AE03FEFC31AD30A83E0C816D1040CF4AECE88
S1130AF08FE097E205C08E2D9F2D02C085E09DE01A
S1130B0062960FB6F894DEBF0FBECDBFDF91CF91D2
S1130B101F910F91FF90EF90DF90CF90BF90AF9017
S1130B209F908F907F906F905F904F903F902F9009
S1130B30089583E02CDE282F2F70837090E0982F87
S1130B40882726952695822B0895CF93DF93EC0171
S1130B50F0DF9C013327F901EE0FFF1FE250FF4F36
S1130B6045915491C417D50708F438C0F901EE0F24
S1130B70FF1FEC50FF4F259134912C173D0780F156
S1130B80E92FFF27EE0FFF1FE451FF4FE491C41B31
S1130B90D50BCE01880F991FCC0FDD1FCC0FDD1FA5
S1130BA0CC0FDD1FC80FD91FF0E0CE01BF0110D359
S1130BB0892BC1F4CE01BF010BD3AB0100245695A0
S1130BC047950794569547950794542F402D4061B7
S1130BD060ED7FEF83E0F0DD80E005C081E003C0DD
S1130BE081E001C081E0DF91CF9108950F931F93BD
S1130BF0CF93DF939EDFEC01FC01FF27EE0FFF1F75
S1130C00E250FF4F059114918AE0C1DDED2FFF27DB
S1130C10EE0FFF1FE451FF4FE4919370E89F9001A2
S1130C20E99F300D1124ADECBCEC02D39695879569
S1130C309695879596958795800F911FDF91CF9113
S1130C401F910F9108958BE0A2DD892F8695089559
S1130C502F923F924F925F926F927F928F929F92C8
S1130C60AF92BF92CF92DF92EF92FF920F931F93B6
S1130C70CF93DF9300D000D0CDB7DEB724E130E0CE
S1130C803A8329830F2EF8EEEF2EF3E0FF2EF02D9A
S1130C900F2EF4E6BF2EF02D40E853E060E873E039
S1130CA082E08ADD87EA91E60197F1F700C000004F
S1130CB08AE06DDD9C838B838BE069DDEB81FC81B5
S1130CC0E4E0FE9FE12DFF27112487FB002700F9B4
S1130CD010E0E023F123EF2B29F386E890E06AD2B9
S1130CE085DFBC0180E090E020EA36E841E050E096
S1130CF083D22B013C019B01329522952F7023272F
S1130D003F702327A7E4B3E093D2969587959695F1
S1130D10879596958795805D49D29201369527955A
S1130D203695279536952795A5ECB0E281D2929514
S1130D3082958F7089279F7089279C838B839C0160
S1130D40ADECBCEC75D2969587959695879596955E
S1130D5087959C01220F331F880F991F880F991FB5
S1130D60880F991F820F931F2B813C81281B390BFD
S1130D70C901805D1BD2EB81FC81EE9DC001EF9D1A
S1130D80900DFE9D900D11249201281B390B3C837C
S1130D902B833695279536952795ABE7B4E148D252
S1130DA06C01D694C79480E38C0D00D2BC9CC00126
S1130DB0BD9C900D1124EB81FC81E81BF90BFC8395
S1130DC0EB839F01ADECBCEC33D26C01D694C79499
S1130DD0D694C794D694C79480E38C0DE7D1C6010A
S1130DE0880F991FCC0CDD1CCC0CDD1CCC0CDD1C3D
S1130DF0C80ED91E8B819C818C199D09805DD6D12A
S1130E008EE890E0D7D11FDFA82E882E912C940174
S1130E103695279536952795ABE7B4E109D2969593
S1130E2087959C838B838B81805DC0D12B813C8192
S1130E30B29EC001B39E900D11246401C81AD90A50
S1130E409601ADECBCECF4D1969587959695879573
S1130E50969587959C838B838B81805DA7D18B81AD
S1130E609C81880F991FEB81FC81EE0FFF1FEE0F11
S1130E70FF1FEE0FFF1FE80FF91FC6018E1B9F0B0C
S1130E80805D94D184E990E095D18AE080DC992357
S1130E900CF002CF8EE990E08DD18091D90090E0E2
S1130EA08815990530F4A092D900E7EDF0E051825D
S1130EB0408229813A81215031093A832983232BA5
S1130EC009F0EACE86EA90E075D1E7EDF0E0208102
S1130ED03181329522952F7023273F702327A7E471
S1130EE0B3E0A6D19695879596958795969587951F
S1130EF0805D5CD1E7EDF0E0408151819A0132954B
S1130F0022952F7023273F702327A7E4B3E090D1C5
S1130F109695879596958795969587950F2EF0E1EA
S1130F20EF2EF7E2FF2EF02D8E9D90018F9D300D58
S1130F309E9D300D1124CA01821B930B9C01369592
S1130F4027953695279536952795A5ECB0E270D16F
S1130F50929582958F7089279F708927805D26D10D
S1130F60E7EDF0E0408151819A01329522952F708E
S1130F7023273F702327A7E4B3E05AD1969587959A
S1130F8096958795969587958E9D90018F9D300DAA
S1130F909E9D300D1124421B530B9A0136952795C3
S1130FA03695279536952795A5ECB0E241D19295D3
S1130FB082958F7089279F70892708EE13E0809FA0
S1130FC09001819F300D909F300D1124CA01821B26
S1130FD0930B9C013695279536952795ABE7B4E19D
S1130FE027D196958795805DE1D0E7EDF0E04081CB
S1130FF051819A01329522952F7023273F70232720
S1131000A7E4B3E015D1969587959695879596951F
S113101087958E9D90018F9D300D9E9D300D1124DE
S1131020421B530B9A01369527953695279536958D
S11310302795A5ECB0E2FCD0929582958F70892714
S11310409F708927809F9001819F300D909F300D64
S11310501124421B530B9A013695279536952795F3
S1131060ABE7B4E1E5D0969587950F2EF4E6DF2E35
S1131070F02DD89E9001D99E300D1124CA01821BF7
S1131080930B9C01ADECBCECD3D0969587959695CB
S1131090879596958795805D89D0E7EDF0E040814E
S11310A051819A01329522952F7023273F7023276F
S11310B0A7E4B3E0BDD096958795969587959695C8
S11310C087958E9D90018F9D300D9E9D300D11242E
S11310D0421B530B9A0136952795369527953695DD
S11310E02795A5ECB0E2A4D0929582958F708927BC
S11310F09F708927809F9001819F300D909F300DB4
S11311001124421B530B9A01369527953695279542
S1131110ABE7B4E18DD096958795D89E9001D99E82
S1131120300D1124421B530B9A01ADECBCEC80D062
S11311309695879596958795969587959C01220F08
S1131140331F880F991F880F991F880F991F820FCB
S1131150931F9A01281B390BC901805D27D08DEAA2
S113116090E028D0E7EDF0E0808191810F900F901E
S11311700F900F90DF91CF911F910F91FF90EF90FF
S1131180DF90CF90BF90AF909F908F907F906F90A3
S11311905F904F903F902F90089583E389B910BCDE
S11311A088E18AB980B5866880BD08955D9BFECFCD
S11311B08CB90895CF93DF93EC018881882329F0BB
S11311C02196F4DF89918111FCCFDF91CF910895AD
S11311D0AA1BBB1B51E107C0AA1FBB1FA617B70759
S11311E010F0A61BB70B881F991F5A95A9F7809575
S11311F09095BC01CD010895052E97FB16F400943B
S11312000FD057FD05D020D007FC02D046F408C00B
S113121050954095309521953F4F4F4F5F4F08951E
S113122090958095709561957F4F8F4F9F4F08954E
S1131230A29FB001B39FC001A39F01D0B29F700DC4
S1131240811D1124911D0895A1E21A2EAA1BBB1B16
S1131250FD010DC0AA1FBB1FEE1FFF1FA217B3077E
S1131260E407F50720F0A21BB30BE40BF50B661F94
S1131270771F881F991F1A9469F760957095809558
S113128090959B01AC01BD01CF010895F894FFCF67
S113129001496E697469616C697A6174696F6E2061
S11312A0636F6D706C657465210A0D005154696D2E
S11312B0653A20003A00666F756E64212000204D67
S11312C0487A2000204C4556454C200D0A005244D3
S11312D05321200D0A000A5365743A2000204D481A
S10712E07A0A000082
S9030000FC
